:020000041102E7
:1000000010B5584A82181C2A1BD8C0467A44127967
:10001000520097440E586E4F547C454A65608637AF
:10002000329069778B811F4095243B2D5B16289F6A
:100030009A005D48807A421E90418000087000203E
:1000400010BD262800D98AE00C4605F097FE2080D6
:10005000002010BD554880880880002010BD524BFC
:100060003433062248E0504840780870002010BD24
:100070004D48408A0880002010BD4B48C079087068
:10008000002010BD484B2833062235E04648008A40
:100090000880002010BD4448C0890880002010BDA1
:1000A000424800880880002010BD3F48C2783F4B7E
:1000B0000A3321E03C48C0690860002010BD3A4B7B
:1000C0002E33062218E0384B3A3314E03648808A43
:1000D0000880002010BD344840790870002010BD11
:1000E000314B1A795A3307E03048008908800020E4
:1000F00010BD2D4B4A3310220846194604F0FEF875
:10010000002010BD284880890880002010BD2648A6
:1001100000780870002010BD244840880880002026
:1001200010BD214880790870002010BD1E48407A1B
:100130000880002010BD1C48007A0870002010BD07
:100140001A48C0880880002010BD1748008B08801E
:10015000002010BD1448C08A0880002010BD022075
:1001600010BDC04600FDFFFF70B50F4E0024747037
:10017000B0700E490E4A0A8105F038FF0120B072B6
:1001800030463A30102521462A4604F0BDF8304664
:100190004A3021462A4604F0B7F8F4613472072049
:1001A0000002F080747170BD9CD3FF1FB0CCFF1FA4
:1001B000FFFF0000F0B585B00C4608B2002811D44E
:1001C00001208603A00B3CD1E0073ED1A00748D414
:1001D000600700D5C5E0200700D5F0E000242046E8
:1001E00005B0F0BD434EB07804F094F8002800D17B
:1001F00008E20178D02965D0A22946D0912900D003
:10020000FEE141780E2900D0FAE181883A4A914214
:1002100000D1E4E0394A914200D0F1E1717805293A
:1002200000D0EDE18168032289567F2900D1E7E102
:10023000326A002A00D1E3E15268002A00D0DBE1F3
:10024000DEE17440204605B0F0BDF84D2878002866
:1002500000D181E0687805285FD102A803210170F0
:1002600066E0F24D687805280AD1F148008904F06B
:1002700057F8AA89002A03D0A878022104F056F87A
:10028000301F0440204605B0F0BD4179132900D04D
:10029000B6E105460089012800D097E0F07A0228EF
:1002A00000D093E0B078082104F046F87078052873
:1002B000284600D0A4E1DE480189B078132205F079
:1002C000CBFE9CE18178072900D999E18A0001A33E
:1002D0009A589746B30402110106021189040211CB
:1002E0000103021101030211EF040211F5030211CF
:1002F000410402119CD3FF1F2220000005140000BE
:100300004278002A00D06EE1032900D028E17178FC
:10031000052900D047E1062166E1687902A9087045
:10032000A8794870881C29462831062203F0E6FF88
:10033000E87902A90872287A4872A87805F036FD93
:10034000002809D007206870286A002804D00168B6
:10035000002901D007208847B01E0440204605B080
:10036000F0BDB34DB14F388A698888420AD3A98855
:10037000884207D8F889798A814203D1E888B98A06
:10038000814217D0052005F0F9FC0190688802A988
:100390000880A8884880F8898880E888C880BA786A
:1003A000288906F039F90020F872B8780821019AF6
:1003B00003F0BCFF083E3440204605B0F0BD103EBF
:1003C000344002F0E5FA204605B0F0BD052005F006
:1003D000D5FC0246B078082103F0A8FF0FE1816840
:1003E0008B784A78097894A50646284602F0B4F836
:1003F000304605E1314634310025062207460846DD
:10040000294603F081FFB5823561B078042529467D
:1004100003F092FFB078082103F08EFF3846B979D7
:10042000082900D003257570F178002900D1B3E0C8
:100430003078002800D1A9E0B07805F075FCAAE07A
:10044000B27808210546104603F076FF2846697801
:10045000002900D0D4E0C1883182018971824089AD
:10046000B082B078042103F06DFF014628460029D0
:1004700000D0C5E0736A002B00D1C1E0B28A718A56
:10048000308A1B689847BAE04178002900D0AAE07A
:10049000C178002900D191E03279B57833465A33DA
:1004A00000210746284605F017FE014638467970B8
:1004B00097E04178002900D095E033462E33C11CE7
:1004C00006220546184603F019FF284601217170DF
:1004D000F278002A00D188E0B078554B0A33012128
:1004E00005F0FAFD0146284600297CD17DE04178DF
:1004F000312944D0002976D133463433011D0622F8
:100500000546184603F0FAFE28466A89A989F18251
:1005100005237370464B1A81EB893383B289002A15
:1005200006D0B078022103F001FF2846EB89A989A3
:1005300073823182018AB182717A01290AD11F2026
:1005400005F01CFC7D21CA004243B078042103F071
:10055000EDFE284600213170316A002948D14FE074
:1005600033490A88002A20D0317800291FD0B37877
:1005700001210546184603F0D9FE284617E003215D
:1005800009023180316A002932D139E0012131700C
:10059000B07803F0DDFE38462549264A0A81316AE3
:1005A000002925D12CE002211EE000213170717854
:1005B00004292CD0062936D1052115E071780229AD
:1005C0000ED0B27801210546104603F0BBFE01466D
:1005D0002846002904D1B078012103F0B9FE28464D
:1005E000417800290CD007217170316A002907D0A9
:1005F0000A68002A04D071780546084690472846C4
:1006000003F0ACFE11480440204605B0F0BD0121C6
:100610003170B2780546104603F09AFE2846316ADA
:100620000029E5D1ECE70321DEE7C0469CD3FF1F9C
:10063000B0CCFF1FFFFF00005B48434920444C45FE
:100640005D25642025642025640A0000FF7F0000EA
:10065000F0B583B0F34D6C78052C42D19608182480
:100660007C2E3BD8214E871FBFB2B74236D28F1F98
:10067000BFB2B74232D2361F1F460A3FBFB2B7429F
:100680002CD2F14EB1807080EA81F3802C8A8442B2
:1006900007D38C4205D8688A904202D1A88A984232
:1006A00017D0089F052005F069FB0446708801A952
:1006B0000880B0884880E8898880F088C880AA7857
:1006C000308905F0A9FFEF72A8780821224603F0CF
:1006D0002DFEA878042103F02FFE0024204603B04D
:1006E000F0BD1424204603B0F0BDC0467A0C0000D3
:1006F000F0B581B0B94BC318182B00D941E15B00AC
:100700007B449B885B009F4418006B00BB003C014E
:100710009C004B007200C300DF00150106013E0083
:100720008F003C0154003100EA00F8003001200144
:100730003C013C013C013C011E00102900D0F6E0C8
:10074000C0483A3051E01820012900D023E1117847
:10075000012900D01FE1BB4DA878082103F0F2FD6C
:10076000002800D12FE1162001B0F0BD182001298A
:1007700000D010E11178012900D90CE1B148417293
:10078000002001B0F0BD1820012900D003E111784C
:10079000072900D9FFE0AB48C171002001B0F0BDCE
:1007A000022900D0C3E01088A7490880002001B0CA
:1007B000F0BD022900D0BAE01288A2498A81002047
:1007C000002A00D1E7E04B78052B00D0E3E08B78DE
:1007D00002210446184603F0A9FD204601B0F0BDF1
:1007E000102900D0A3E097484A30102398E01F2931
:1007F00000D99CE0944C0A3400231F2620460D4665
:1008000019461746324603F07FFD204639462A46F0
:1008100003F074FD8B48C570807801212A46234679
:1008200005F05AFC01B0F0BD1820012900D0B2E05B
:100830001178032900D9AEE082480172002001B08E
:10084000F0BD012973D17F490B7812780A70002B13
:1008500000D1A2E0002A00D09FE04A780020062ABA
:1008600000D998E0012393405422134200D192E032
:1008700089780446084605F057FA204601B0F0BDD5
:10088000042954D110686F49C861002001B0F0BD3F
:100890001F294CD86B4C5A3400251F2320460E4686
:1008A000294617461A4603F02FFD204639463246A0
:1008B00003F024FD634806718078294632462346BA
:1008C00005F00AFC01B0F0BD1820012963D11178B0
:1008D000042960D85B484171002001B0F0BD1820A8
:1008E000022958D111888A1F3D4B92B29A4252D2A6
:1008F00055484180002001B0F0BD182002294AD19E
:1009000011888A1F364B92B29A4244D24E48818057
:10091000002001B0F0BD062909D14A48283006233D
:1009200011461A4603F0EAFC002001B0F0BD182081
:1009300001B0F0BD182001292DD1117803292AD842
:1009400040488171002001B0F0BD1820022922D159
:1009500023490B1F11880A460A3A92B29A421AD2C8
:100960003948C180002001B0F0BD1820022912D101
:1009700011888A087C2A0ED83248C181002001B033
:10098000F0BD04460220262C05D8022903D1118887
:10099000204605F051FB01B0F0BD0020002BFAD13C
:1009A000002AF8D04A78052AF5D8012393403A2244
:1009B0001342F0D08A7801210446104603F0C8FCA7
:1009C000204601B0F0BD0024204601F0FFFFA878CA
:1009D000042103F0B1FC204601B0F0BDFFFCFFFF95
:1009E0007B0C000010B582B0164B5978002903D05B
:1009F0001124204602B010BD002800D0186298785B
:100A0000997A1A461C321C464A34009401924A1EB6
:100A1000914189003A330024224600F017F820461D
:100A200002B010BD9CD3FF1F80B506484178052950
:100A300006D1054909898078132205F00DFB80BD98
:100A4000122080BD9CD3FF1FB0CCFF1F70B51C4689
:100A500001290BD0042909D00C2917D10CA2054675
:100A600010460E4601F078FD2846314605F002FAA0
:100A7000002800D070BD059A0499204605F0BCFA04
:100A800005F014FA05F076FF002070BD022070BD5D
:100A90004741505F446576696365496E69743A20E1
:100AA0004741505F50524F46494C455F43454E5475
:100AB00052414C207C204741505F50524F46494C98
:100AC000455F5045524950484552414C200A00006C
:100AD00010B582B0C00702D1002002B010BD684638
:100AE000042101801A4C019405F080FC002801D0FB
:100AF00002B010BD6489002C1FD00C2003F034FC20
:100B000000281DD0014613488860002008608C80B2
:100B1000204A9368002B16D01C68002C1A4613D06C
:100B20002368002B22460FD01C68002C1A460BD0DD
:100B30002368002B2246EFD106E0022002B010BD50
:100B4000132002B010BD0832116002B010BDC046C3
:100B50003CCDFF1F84A8021170B50E4E0024B46175
:100B6000B474B47330707470E043B0823082B0817A
:100B7000094DF8222846214603F0C6FBB5612C80BA
:100B800001207070307805F02BFC044807F0F4FD6C
:100B900070BDC046E0D2FF1FF0F2FF1F312A0211E4
:100BA000634A904205D18A80002088700A80881D9F
:100BB00008E00B88834203D08B88834204D1091D4F
:100BC0000A80881C002101707047C046F0B581B0D2
:100BD000069C002C02D00B2001B0F0BD022B0BD1E3
:100BE000079C137852781202D2181546A5432C049C
:100BF00005D0802001B0F0BD0D2001B0F0BDCC6863
:100C00002688864204D1A57896B2AE4217D11BE061
:100C1000A788251D874205D1A47996B2A6422C4605
:100C20000DD111E0009515040ED0414DAE4205D016
:100C3000AF42009C02D0112001B0F0BD2080A37013
:100C4000498992B200F020FF002001B0F0BDC046FB
:100C5000F0B5C5B00646008800240694344CA04286
:100C60001ED04A9C002C1BD0B578002D18D04B9D6F
:100C7000049505931D46EF688F4214D0012C0FD0C8
:100C8000EF698F4212D0022C0AD0EF6A8F4211D046
:100C9000032C05D0EF6B8F4210D04035241FEAD1D2
:100CA000069845B0F0BD344603920AE034460392FC
:100CB000103506E034460392203502E034460392B4
:100CC000303541001B4A1268515C059A5289002355
:100CD0000693019307AB9E1C0096C91EC9B20291F0
:100CE0001B1D294600F0F8FC0028D9D1688907A906
:100CF0000880A078C1070DD10025800713D5208872
:100D000007A9039A049B05F0DBFA2843069006988E
:100D100045B0F0BD208807A9039A05F02FFB0546D2
:100D2000A0788007EBD40695069845B0F0BDC04684
:100D3000FFFF000000CBFF1FF0B58FB00C9108B291
:100D4000002804D400200C900C980FB0F0BD1E4D6C
:100D5000287803F0DFFA002801D100F086FC06466F
:100D60000078B02801D000F07DFC3079801E162874
:100D700001D900F06FFC3346FE330B964000C046AD
:100D80007844808840008744160065046504650443
:100D90000801650425006504490265046C026504C8
:100DA000A50065046C016504ED0165046504650436
:100DB000930265048D020548008805490880708803
:100DC00004F0BAFD00F046FCE0D2FF1FF8CAFF1F96
:100DD000EAF3FF1FE24C206871884900405A3789C6
:100DE0000A22042801D200F02AFC089230460D3075
:100DF00007900022A81C0690154605920A92337BA4
:100E000071890EA80090B8B2079A05F0DDF90028A4
:100E100000D1E3E3074640890990397A708805F0EC
:100E200049FB002800D0DEE3216870884200895C1D
:100E30000EAA12880026091FC9B2069B00930196CC
:100E400002913946F04B00F047FC002800D0C9E37E
:100E50000A98000607D0ED484088ED494A88911C61
:100E6000814205D0DAE3EA484288901CE74948808D
:100E7000501921680B9B5B885B00C95A091F884287
:100E800000DDAEE3B87AE149091D48550A9D681CAA
:100E9000C0B2FB7A0B54AD1CE8B20818DA4903F073
:100EA0002DFADB4880782A18099FDA48874200D15A
:100EB0009CE320680B9E71884900405A001FD5B200
:100EC0007F1CA8429ADA1006D14D1146089A00D02C
:100ED00093E3B4E3CD49002008801978002900D1BC
:100EE00046E20B9C0834C74FC949891C0691C64D80
:100EF0000646079312E0C54F3818801C294603F0B8
:100F0000FDF9C3484088398808183880A41C761C2D
:100F1000079B19788E42BB4F00D329E239680B9AA0
:100F200052885200895A491E80B2814200DC1FE279
:100F30000A9620880EA905F021F9002800D112E3B5
:100F4000014609943A680B9E70884300D35C0EAA50
:100F50001288089200245B1EDBB22A46069D00958B
:100F6000154601940293089A2B4600F0B5FB002821
:100F700000D0FDE2386871884900415AA3480088D2
:100F8000A34C628813188B422346099C0A9EB2D355
:100F9000C243891859808AB2ADE735469B4E00247A
:100FA000F6223046214603F0AFF92B7B6989288968
:100FB0000EAA00922A460D3205F006F9074630784F
:100FC000002F00D14DE212350995914DA91C0A91CF
:100FD00003E08F4D002F00D1D3E2C1B28E4A1288B8
:100FE0008A4200D8CDE2874801680B9D688842009C
:100FF000895C0EAA1288C91FC9B20A9B009301948A
:1010000002913946804B00F067FB00280FD12A8AF5
:101010007F48408882420AD109987B4903F0AAF9A7
:10102000002804D0307880003018798941800EA8DB
:10103000028869890DAB384605F0F8F80746307824
:10104000810071184A88002AC3D0891C002F704D76
:1010500000D192E20D9A4A80401C3070002FBCD122
:101060008FE2337B718930890EAA00920D363246A9
:1010700005F0AAF80A22002800D1A2E20746089249
:1010800000200A90A81C0790604E17E008180DA9D0
:1010900009880171080A0A9AD11C89B26854161D80
:1010A000B0B228185A4D6A88574903F027F9688862
:1010B00080190A90002F554E00D170E2397A0B9DAD
:1010C000688805F0F7F9002800D03CE24D48016837
:1010D00068884200895C0EAA12880023891FC9B261
:1010E000079C00940993019302913946464B00F006
:1010F000F3FA002800D026E20A9880B20028444D76
:1011000010D0728869880B1D93420B9E00D025E297
:1011100009183C4A126873885B00D25A921F9142A8
:1011200004DD1BE26988091D71800B9EB97A374A7C
:10113000151D29540A9C601C80B2F97A29540EA806
:10114000028871890DAB384605F070F80746A01C7F
:10115000002F80B22D4999D10918FF2008719AE714
:1011600000CBFF1F079330890DA905F007F8002871
:1011700000D178E10146007A800600D577E17489D4
:10118000778830890EA904F0F9FF002800D11BE20E
:1011900001460A9737460C37284608300EAB1B88A5
:1011A00000680E22002800D10FE285889D4214D0ED
:1011B0000068002800D108E285889D420DD00068B3
:1011C000002800D101E285889D4206D000680028F1
:1011D00000D1FAE185889D42E2D18068002800D1E3
:1011E000F3E14568002D00D1EFE100200990009067
:1011F0000A983A462346A847002800D151E2024601
:10120000E3E1C04600CBFF1F5CD4FF1FEAF3FF1FE2
:10121000E0D2FF1FFFFF0000FACAFF1F30890EA9AE
:1012200004F0ACFF002800D19FE00146FD480268B1
:1012300070884300D35C0EAA128800250195FA4DF0
:1012400000955B1EDBB20293AB1CF84D00F044FA34
:101250000246002800D089E07088F34904F032FD8E
:1012600096E130890EA904F089FF00287DD001465F
:10127000EC48026870884300D35C0EAA1288758916
:101280000195E94D00955B1EDBB20293AB1CE74D67
:1012900000F022FA0246002868D17088E24904F082
:1012A000E1FC75E17088A98A814268D0002268E07B
:1012B00030890EA904F062FF37460837002800D1B4
:1012C000D3E00146007A80060A9700D509E1A98A91
:1012D0007088814204D0FB4A914200D07CE1A88210
:1012E00069780922002900D1A6E11F20059000019C
:1012F000AD69049028180890F82004464143F2484C
:10130000081809905D20C000039028180690EF4847
:10131000081807900E46F83E0023E85A002800D12E
:10132000AAE19E421ED01746E818025B002A00D1AF
:10133000A5E1099A9A4200D17AE1089AD25A002A84
:1013400000D19EE1079A9A4200D171E1069AD25AE1
:10135000002A00D197E1059840011B1899423A46AE
:101360000A9FDAD10B9ED64D66E10122378964E1EE
:101370000B9E7088D64904F09BFCD14D6AE12A4649
:101380001432814200D0A9E06978CE4B002900D107
:10139000E0E0069200270997089714E02B4600200A
:1013A0000B990872188809900026F82218463146D1
:1013B0001D4602F0A9FF2E807F1CC14D6878874230
:1013C0000B9E00D381E0F8217943AA69505A002886
:1013D0007BD05318317A0129E6D15D889C887188C9
:1013E0000A910EA91E4604F0C9FE002835D0014618
:1013F0002A463546B01D0790B14808300EAB1B8811
:1014000000680E2608960028C8D086889E4211D013
:1014100000680028C2D086889E420BD00068002851
:10142000BCD086889E4205D000680028B6D0868849
:101430009E42E5D180680028B0D04668002E2B4639
:10144000ADD000920A98079A2346B0472B460890E1
:101450000028A4D100200890A6E701200890334678
:101460009DE7974D8DE00122B0E00122E4E028469F
:1014700008300DAA128800680E27002871D08388D2
:10148000934211D0006800286BD0838893420BD020
:101490000068002865D08388934205D00068002842
:1014A0005FD083889342E6D1806800283A4600D115
:1014B0008CE08368002B00D188E070881222984766
:1014C000002800D15BE6024680E006987D49018055
:1014D000089A1006099F00D0B1E0708804F04CFA19
:1014E000B8E0284608300EAA128800680E270028A7
:1014F00000D19FE08388934214D00068002800D177
:1015000098E0838893420DD00068002800D191E0D4
:101510008388934206D00068002800D18AE083883F
:101520009342E2D1806800283A4600D183E0836884
:10153000002B0A9F00D17FE0708812229847024654
:10154000002879D1C3E602465D4D0A98000438D0E0
:101550007F8929E0AB8204F00FFA7BE0099F5C4EA3
:1015600022E03A4632E00122554D0B9E278866E084
:101570000246534D099C278861E0E2434A80401CA3
:101580003070000607D00B9E7088514904F0FCF9BA
:1015900000273A4651E00B9E37890A224DE00A980F
:1015A0000004089A099F0CD00A9880B2718802F052
:1015B000E7FE307031460B9E708804F05DFB002220
:1015C0003BE00B9E378938E001223D4D3789079972
:1015D000C87800283ED130E009222DE005980A9A0B
:1015E00007E030460B9E099F0A9A02E0354F3046CD
:1015F0000B9E1106F74D11460AD0C8B2344F7988B8
:1016000002F0BEFE38707088394604F043FB21E0DA
:10161000010601D0024612E00A2210E00B9EED4DB9
:101620000A99EAE700CBFF1FEAF3FF1FE0D2FF1F92
:101630000B9EE84D3A460A9F3F8810060AD0707804
:10164000142807D022490A714F80307908707088B9
:1016500004F068F9304604F079FD6968002901D08A
:1016600030468847304602F079FE1A480C9901400E
:101670000C910C980FB0F0BDE818D64D07E0F8308B
:1016800003E0049900E003994018FE4D0A9FF822F8
:10169000394602F033FE0B9E7088394604F0D8FAC2
:1016A00076E70799C8780028099F3A46F54D8FD10B
:1016B000708804F031FB079900273A4688E7C04656
:1016C000E0D2FF1FFFFF000010FEFFFF18FDFFFF2D
:1016D000EAF3FF1FFF7F0000F0B587B015460A7AD6
:1016E000D20623D40E9A03920D9E0C9A04920A7885
:1016F000022A59D14A68147852781202121992B209
:10170000B54CA2423FDDB54C1219042A4CD8C04654
:101710007A44127952009744028591027E00002E8D
:1017200000D19EE00B22104607B0F0BDD54C083426
:1017300024680E22002CF6D0A688AE4211D0246870
:10174000002CF0D0A688AE420BD02468002CEAD042
:10175000A688AE4205D02468002CE4D0A688AE420C
:10176000E6D1A468002CDED0A768002FDBD00A22C7
:1017700004460E460493B8473146049B0246204671
:10178000002AD0D1AEE7964C1419022C37D3954CD1
:10179000A2423AD0944CA24206D1002E00D182E05F
:1017A0000B22104607B0F0BDB64C083424680E2258
:1017B000002CB8D0A788AF4211D02468002CB2D03A
:1017C000A788AF420BD02468002CACD0A788AF42CA
:1017D00005D02468002CA6D0A788AF42E6D1A46823
:1017E000002CA0D02468002C9DD00096039A019272
:1017F0001A46049BA0470246104607B0F0BD002ED3
:1018000023D00B22104607B0F0BD002E6DD00B2266
:10181000104607B0F0BD002E00D198E00B22104614
:1018200007B0F0BD1D460C46C86802F0AFFDC1B25E
:10183000B14222D20722104607B0F0BD002E00D1DF
:101840009BE00B22104607B0F0BDC86802780499EF
:101850000A804168184602F051FD0022104607B088
:10186000F0BDC86800880221049A1180010A5970ED
:1018700018700022104607B0F0BD0022B14202925B
:1018800005D0039B9A1991421A4600D8821BD2B206
:1018900004980280E0688119284602F02FFD029A20
:1018A000104607B0F0BD0120049E3080C868007863
:1018B0001D4618704889401C80B200210C4604F077
:1018C0005DFC002866D0318802785118891C31806F
:1018D000817A6970C17AA97002784168E81C02F0C7
:1018E0000DFD2246104607B0F0BDC86805880420EB
:1018F00004990880280A58701F461D7006A92846BA
:1019000004F03CFC002852D00646C46806A80288B1
:10191000364D05AB3046294604F088FC002809D135
:10192000337872683248022103F0C1FF002801D1E8
:1019300005A80580207802283BD16168381D022265
:1019400002F0DCFC04990888801C088031E0072044
:10195000049A1080C86801781970417859708178AC
:101960009970C178D9700179197181795971C079EB
:1019700098710022104607B0F0BDC9680A888242FB
:1019800001D1049A04E08A888242049A19D1091D7F
:10199000887817E03088001D3080681C00240422FD
:1019A000214602F0B1FC2246104607B0F0BD05A862
:1019B00005800598B870000AF8700022104607B03C
:1019C000F0BD00200221118000225A7018701046CC
:1019D00007B0F0BDE0D2FF1FFF28000000D7FFFFD7
:1019E00000D8FFFF0228000003280000FFFF0000CE
:1019F000A6A702110A88824203D08A88824202D1B5
:101A0000091D88787047002070470000B0B582B08B
:101A100000282CD01446054668460180019504F044
:101A2000E5FC002C2BD0002829D16D89002D1ED07B
:101A30000C2002F099FC00281CD001468460002094
:101A400008608D800F4A9368002B16D01C68002C0C
:101A50001A4613D02368002B22460FD01C68002C96
:101A60001A460BD02368002B2246EFD106E0022055
:101A700002B0B0BD132002B0B0BD0832116002B098
:101A8000B0BDC046E0D2FF1FF0B581B004460C4F98
:101A90003878FF2811D016460D460A2002F07CFC4B
:101AA00000280AD0014600200871B12008800E816C
:101AB000CD804C80387802F075FC01B0F0BDC04696
:101AC00038CDFF1F80B5C00701D1002080BD3A4846
:101AD00008300721014AFFF799FF80BD70A8021165
:101AE000F0B581B003460220072B60D87B441B79F8
:101AF0005B009F4403255C5C185C2B45152958D876
:101B00002E48841C0025162320460E4629461746DB
:101B10001A4602F0F9FB20463946324602F0EEFB47
:101B2000284601B0F0BD082943D110885188090426
:101B300008189188D288204B1204511803C335E04D
:101B4000022936D110881D4908802FE0012930D1A3
:101B500011780A23084618403022174CA55CF52658
:101B60002E403518606A8E0619D4DF263540A554FC
:101B7000194217D1002919D101780C22914314E0A0
:101B8000012916D111780A230846184050220A4C20
:101B9000A55CF5262E403518606C8E06E5D5202113
:101BA0000D43A55402780C2111430170002001B0AF
:101BB000F0BD182001B0F0BD38CCFF1F84D3FF1F4B
:101BC000F0B5D9B0514D68701F2006210F9104F077
:101BD00033FA58A808900024047057A80A900121ED
:101BE000017056AE07200E90307055A80790048003
:101BF00054AA099218201080454F38461B3053AA2A
:101C00000B92108052A80C9004807D20800051AA75
:101C10000D9210803F4811903F481090287850AAAC
:101C20001070381D0D460691FEF762FDB81D10AA12
:101C30000F99FEF75DFDF81D29463246FEF758FD67
:101C400038462946089AFEF753FD781C022631468D
:101C5000079AFEF74DFD314D28461F3029460831C1
:101C60000891112202F04AFBF81C2A461D321C2161
:101C7000FEF73EFDB81C39351E212A46FEF738FD19
:101C800038460B3006990A9AFEF732FD38460C307A
:101C90003146099AFEF72CFD38460D3031460B9A35
:101CA000FEF726FD38460E3031460C9AFEF720FD31
:101CB0000F37384631460D9AFEF71AFD152120469A
:101CC000089AFFF70DFFA0250F98294604F0B4F9F4
:101CD0000E98294604F0B0F90820294604F0ACF922
:101CE0000920294604F0A8F9E5432846FFF7EAFE53
:101CF0002846FEF7EDFE284600F026FB55A80F21EA
:101D0000017010A8848010940AE0C04618D4FF1F08
:101D1000050300000506000001020304DCCCFF1FE0
:101D200010A80019224617320E921F320F92362148
:101D30004254214616310D911F31352281542146DE
:101D400015310C911F3134228154214614310B91ED
:101D50001F3133228154214613310A911F3132221F
:101D600081542146123109911F313122815421467B
:101D7000113108911F3130228154214610310791D1
:101D80001F312F22815421460F3106911F312E22FF
:101D9000815421460E3105911F312D228154214657
:101DA0000D3104911F312C22815421460C310391B5
:101DB0001F312B22815421460B3102911F312A22DF
:101DC000815425460A3529461F312922815423464C
:101DD000093319461F312822815422460832114600
:101DE0001F312727C155E11D01911F312627C155FC
:101DF000A11D0F461F37252687550E461E36242760
:101E0000C6550E461D362327C6550E461C362227BC
:101E1000C6550E461B362127C6550E461A362027B4
:101E2000C65526461F36C67726461E368677264670
:101E30001D36467726461C36067726461B36C6765E
:101E400026461A36867626461936467626461836A9
:101E500006760E9EC6750D9E86750C9E46750B9E6B
:101E600006750A9EC674099E8674089E4674079E6F
:101E70000674069EC673059E8673049E4673039E73
:101E80000673029EC672857243720272019AC27113
:101E9000817131340F98FA2800D041E703200121E5
:101EA00055AA00F09FFA0420FB2110AA00F09AFA2C
:101EB00000206C4908540A18034610331374034673
:101EC0000F33D37303460E33937303460D335373AB
:101ED00003460C33137303460B33D37203460A33A2
:101EE0009372034609335372034608331372C31DBA
:101EF000D371831D9371431D5371031D1371C31C53
:101F0000D370831C9370431C53701130FF28D1D1C0
:101F10005348001D00F05CFA0124204602F048FA04
:101F2000204602F04BFAF725284603F0D5FE4EA0D6
:101F3000294600F011FB494F7878214602F008FA53
:101F4000787804F053F84F4802F03EFA4E4800F01B
:101F500003FB4E48788138460A3002F03BFA4C4881
:101F600000F0FAFA4B484C4E2146324600F0F4FAA3
:101F7000322002F035FA0020D02102F037FA002892
:101F80003CD0464800F0E8FA42480221444E32462E
:101F900000F0E2FA322002F023FA0025D22128468E
:101FA00002F024FA002829D03C4800F0D5FA3D4838
:101FB00000F0D2FA3C4800F0CFFA3C4800F0CCFAEE
:101FC0003B4800F0C9FA3B4800F0C6FA3A4800F036
:101FD000C3FA3AA000F0C0FA404800F0BDFA404809
:101FE00000F0BAFA3F4800F0B7FA3F4800F0B4FA00
:101FF0003EA000F0B1FA7D7159B0F0BD4B483146BA
:1020000000F0AAFA7C7155A802F0F6F900280BD06E
:10201000474800F0A1FA10A802F0F4F900280DD00A
:10202000454800F099FA11E055A80178414800F0C0
:1020300093FA10A802F0E6F90028F1D1109802F006
:10204000E7F902463D480B4600F086FA787821030E
:102050000A2202F06BF959B0F0BDC04618D4FF1F38
:10206000DCCCFF1F6CEFFF1F5B324D627073207C76
:1020700020444C45207C204D54552025645D200A89
:1020800000000000B0E5FF1F01AA021104130000C8
:1020900012A90211B6AB0211FEAD02114BAC021136
:1020A000E9AD0211E0A80211DFA90211C3A90211D2
:1020B000BFAC02114EAD0211A3A902115B4D5055E8
:1020C000393235305D202020202D20534441202DF1
:1020D0003E204750494F5F5033310A00ABAA0211EE
:1020E0005BA90211E1AC02116FAD02115B4D5055BD
:1020F000393235305D20362E20E4BCA0E6849FE5E1
:1021000099A8E78AB6E680813A20E7A1AEE8AEA4B6
:102110004D505539323530E88AAFE78987E6B2A1AC
:10212000E69C89E68D9FE59D8F0A0000D5AB0211E4
:1021300082AC0211F6AA021123AD02114AAA0211C1
:10214000F0B585B00C4608B200280FD4E00728D1BE
:10215000A00731D4200735D460073FD4E0046DD404
:10216000A00479D40024204605B0F0BD5D48407835
:1021700002F0D0F800280ED00178912909D14178D9
:102180000E2906D1818858A20546104600F0E4F9D0
:10219000284602F0E3F85F480F300440204605B0BF
:1021A000F0BD5D48FEF71EFC5A480E30044002F0B8
:1021B00035F9204605B0F0BD56480C3004402046A5
:1021C00005B0F0BD04AA012111705448FEF790FA41
:1021D0005048001D0440204605B0F0BD414FB8787E
:1021E000002869D0F8884E4D6870000A28700026D3
:1021F00003A9304602F018F902A9304602F01AF994
:1022000001A9304602F01CF9039868740198E8743B
:102210000298800880214140A974304603F0D6FB23
:10222000C01EC1B205202A4601F0C0FE00281AD007
:102230000146FA883CA000F08FF93DE001F096FBE2
:1022400028484078012109030A2202F06FF83C482F
:102250000440204605B0F0BD3A48044001F060FC5F
:10226000204605B0F0BDFA882E48002100F074F930
:10227000F888401CF880B97802291DD381B2090A78
:10228000012668702970002003F0A0FBC01EC1B2B7
:1022900005202A4601F08AFE0028C9D1FA880021CB
:1022A000204800F059F9F888401CF880761C81B26B
:1022B000090ABA789642E4D33A89002A07D0F87816
:1022C00000280AD17878042102F030F805E0787807
:1022D000042102F031F80020F8800E480440204626
:1022E00005B0F0BD18D4FF1F3D3D3E204843495F77
:1022F000434F4D4D414E445F434F4D504C45544527
:102300005F4556454E545F434F44453A2025780A71
:1023100000000000F07F000088CDFF1F05030000D3
:102320006CEFFF1F37AC02115B4E4F54465F5458A1
:10233000204552525D2025303278202534780A001D
:10234000F06F0000F04F000010B50446084809493E
:10235000FEF726FC084806F00FFAE00701D100203E
:1023600010BD06480E21064AFFF750FB10BDC046BF
:10237000FFFF0000E8F6FF1F793F021190CDFF1F1D
:10238000C0A80211B0B50D46062813D0042806D007
:1023900003281AD12648007828700020B0BD0024F8
:1023A000204603F013FBC21E2049284601F0A6FF79
:1023B0002046B0BD0024204603F008FBC21E1A4987
:1023C000284601F09BFF2046B0BD0220B0BDC046AC
:1023D000002803D002490860002070471120704790
:1023E000FCD2FF1F80B506280FD0042808D0032890
:1023F00018D1012914D110780D490870002080BD32
:1024000088083E280CD8094803E088083E2807D8E9
:1024100005480B4611461A4601F070FF002080BDAA
:10242000182080BD022080BDF0F6FF1FF2F4FF1FD0
:10243000E8F4FF1FF0B58DB029A000F08DF82DA0B5
:1024400000F08AF80024264608940794254627467B
:1024500009940696E0B20AAE314601F0F7FF3088E3
:10246000059070890490708831893B46F788B2885E
:102470000090019102971F4603922AA02146049AD8
:10248000059B00F069F80B984519F08807994118E9
:1024900007910C980899411808917088C7190A98F3
:1024A0000999411809917089069E8619641C252C8A
:1024B000CFD1274800F050F8A8B2079989B2089AFE
:1024C00092B2009201910290B1B2099882B2BBB26D
:1024D000204800F041F801F0BFFF0DB0F0BDC0464C
:1024E0005B504552205354415453204E6F746966DB
:1024F000795D0D002D2D2D2D2D20636820636F6ECD
:102500006E4E2072784E756D207278437263207221
:1025100078546F4E20747841636B207478527479CC
:10252000200D00005B5045525D202530326420258F
:102530003035642025303564202530356420253041
:102540003564202530356420253035640A000000CC
:10255000BAAD021161AB021183B0F0B58CB0054683
:1025600011A80EC011A808900A900021C843059038
:10257000012006900F4601E0099005E12878252802
:1025800009D0002800D1E6E100290DD07F1C0029E8
:102590002846F1D00CE0002F0CD0BAB2002420461F
:1025A00001F060FF099406E0012700292846E3D0E6
:1025B0000846E1E709916D1C00210A462878034688
:1025C000203B102B18D804217B441B795B009F44CF
:1025D0000B13130D1313131313131308130F1313E8
:1025E000110011436D1CE8E70821FAE72021F8E704
:1025F0001021F6E70121F4E701463039092917D8FF
:1026000000260A214E438619303E68780346303B47
:10261000092B1CD871434618303EA91CA8780346E4
:10262000303B0A2B0D46ECD30D462E2812D030E05D
:102630002A282AD1089840C808906D1C002E02D57F
:1026400010200243764228782E2803D021E06D1C0A
:102650002E281ED168780146303909291DD8691CF9
:1026600000230A246343C318303B48780546303DB5
:10267000092D1AD85C430319303B8D1C887801461C
:1026800030390A292946ECD313E0059E28782E28F4
:10269000E0D0059B4C2810D113E02A2807D1A87858
:1026A000089908C90891AD1C03E04D1C01E06D1CA0
:1026B000059BD9178B434C2803D06C2801D0682880
:1026C00001D168786D1C2538532800D9D7E0252121
:1026D0000A240794002740007844808840008744FB
:1026E000D900CE00CE00CE00CE00CE00CE00CE006F
:1026F000CE00CE00CE00CE00CE00CE00CE00CE006A
:10270000CE00CE00CE00CE00CE00CE00CE00CE0059
:10271000CE00CE00CE00CE005300CE00CE00CE00C4
:10272000CE00CE00CE00CE00CE00CE00CE00CE0039
:10273000CE00CE00CE00CE00CE00CE00CE00CE0029
:10274000CE00CE00CE00AF00CE00CE00CE00CE0038
:10275000CE00CE00CE00CE00CE00CE00B30056009C
:10276000CE00CE00CE00CE005600CE00CE00CE0071
:10277000CE005300C3005900CE00CE006600CE004C
:10278000C500CE00CE00B1006D1C0999F6E602200E
:1027900002436BE0711C484248410243089C01CC53
:1027A00008940092002900D10826102163E00898BF
:1027B00002C80890002900D16CA1002B0F4600D15F
:1027C0009BE0087800280F4600D196E0181F029081
:1027D000581E0790981E0490D81E0390002303E013
:1027E0001B1D002800D0B1E00798C01A474247419E
:1027F000C8184478002C069C00D03C46002C71D1AF
:10280000049CE41A674267418478002C069C00D03F
:102810003C46002C6BD1039CE41A67426741C478A4
:10282000002C069C00D03C46002C65D1029CE41A8A
:1028300067426741007900280698D1D03846CFE733
:1028400040200243102010E0D0062CD4022E2EDBB4
:102850000BA92020087000240122204601F002FE6E
:10286000761E012EF4D823E008200790089901C9AC
:10287000089100920799324600F090FE84E70BA978
:102880002520087000270122384601F0EBFD297849
:1028900000290AD00BAB19700027012238461946CF
:1028A00001F0E0FD70E7344602E06D1E6CE7741E37
:1028B000089901C908910BA9087000270122384620
:1028C00001F0D0FD022C00DA5EE7641C0BA9202089
:1028D000087000270122384601F0C4FD641E022C56
:1028E000F4D851E7471C7C1AD00609D51AE0871C9A
:1028F0007C1AD00604D515E0C71C7C1AD00611D46A
:10290000B4420EDA07910BA92020087000200122A2
:1029100001F0A8FD761EB442F5DB0799C8433E18C6
:1029200000E0761EA2B20027384601F09BFDB442BB
:1029300000DB29E70BA92020087000270122384678
:1029400001F090FD761EB442F4DB1DE7CF187C1A2F
:10295000D006D5D5E6E7002F03D0BAB2002001F0AB
:1029600081FD0CB0F0BC01BC03B000473C4E554C9F
:102970004C3E000080B582B000230093E12041026C
:102980000248012201F074FD02B080BD0506FFFF80
:1029900010B582B02548C17A02290CD0012913D183
:1029A000214CE388C289A188608801240094FDF746
:1029B0004FFE02B010BD4178052905D11A49098999
:1029C0008078132203F048FB02B010BDF0B583B04D
:1029D0000446154F154E308A798888420AD3B98843
:1029E000884207D8F089718A814203D1F888B18A78
:1029F000814216D0052003F0C1F90546788801A967
:102A00000880B8884880F0898880F888C880B278C3
:102A1000388903F001FEF472B07808212A4601F0EB
:102A200085FC03B0F0BDC046B0CCFF1F9CD3FF1F98
:102A3000F0B581B00446012909D0022905D1012150
:102A4000204605F0CBFE002801D001B0F0BD204D9E
:102A5000A88AA0420AD000224949A0420BD08C4249
:102A600022D0A889A04228D10C352AE02A46143267
:102A70004349A042F3D10092687800280FD0002685
:102A80003746A869815B002909D080190021F82206
:102A900001F03AFCF8367F1C68788742F1D3384958
:102AA000009801808C42DCD129820020A873A98182
:102AB00012350020287001B0F0BD288AA042C4D190
:102AC00010352980AD1C0020287001B0F0BDC04633
:102AD000E0D2FF1FF0B581B00D780124022D0BD19B
:102AE0004D682E786D782D02AD19234EB54203D175
:102AF000069C002C03D00B24204601B0F0BDDBB2B5
:102B0000022B0AD1137852781202D2181B4C22429F
:102B100007D08024204601B0F0BD0D24204601B02E
:102B2000F0BDCC682688864204D1A57896B2AE4224
:102B300018D11CE0A788251D874205D1A47996B23B
:102B4000A6422C460ED112E0009515040FD00C4D74
:102B5000AE4206D0AF42009C03D01124204601B003
:102B6000F0BD2080A370498992B2FEF78DFF00244A
:102B7000204601B0F0BDC04602290000FDFF000064
:102B8000FFFF0000F0B581B00698002802D00B20AE
:102B900001B0F0BD0878022825D148680478407853
:102BA0000002001980B26D4C001904281BD8C046E1
:102BB00078440079400087440245333B1B001D46A2
:102BC0001446079F0E46C86801F0E0FBC1B2B94247
:102BD00000D80746FAB22A80F168204601F08EFB41
:102BE000002001B0F0BD00201880012001B0F0BD30
:102BF000C868002830D00821198001781170417808
:102C0000517081789170C178D170017911714179D9
:102C1000517181799171C079D071002001B0F0BDFE
:102C200001201880C86800781070002001B0F0BD45
:102C300006241C80C9681046224601F05FFB002074
:102C400001B0F0BDC868008802211980010A5170E6
:102C50001070002001B0F0BD0020188001B0F0BD60
:102C6000F0B581B00C780120022C57D14C68257842
:102C7000647824026419A4B2384D6419032C4DD829
:102C8000069DC0467C4424796400A74401170D12B8
:102C90001F4614460E46C86801F078FBC0B2A84231
:102CA00011D2072001B0F0BD002D26D00B2001B0BD
:102CB000F0BD002D29D00B2001B0F0BD002D2FD08C
:102CC0000B2001B0F0BD3A46EF19152F3FD8F06840
:102CD0004019214601F012FBB9B2F26800205054AD
:102CE0001F490968002919D00968002916D0002455
:102CF00020468847204601B0F0BD012B27D110782F
:102D0000012827D8C968087007E0062B1FD1C868BA
:102D1000062311461A4601F0F1FA002001B0F0BD79
:102D2000022B14D11078527812021018C96808804A
:102D30000B48016800200029F0D00A68002AEDD075
:102D40000121044608469047204601B0F0BD0D2001
:102D500001B0F0BD802001B0F0BDC04600D6FFFF3D
:102D600084E9FF1FF0B583B0284B98680090D868BD
:102D700002909861BE4F2437002509E030439860E7
:102D8000181F0168314301600C376D1C172D3AD0B4
:102D900001200646AE4002990E42F5D0009CEC4060
:102DA0000440381F002C06D00268002A03D001908E
:102DB000E8B2012107E0002C08D13A68002A05D0CA
:102DC0000190E8B2002190470198104B39680068E3
:102DD00000280DD05868304358601868B043186018
:102DE00098680029CAD0002CC8D0F1430840C6E733
:102DF0000029C9D05868304358601868B04318603B
:102E00009868B043BBE703B0F0BDC04634800040D3
:102E100070B50922D2430346113B934201D20620EA
:102E200070BD944A00291AD003214143A24B5C187B
:102E3000A5786478641B641C0026F643A640F4431E
:102E4000AC40595C89009D4BCD58A543CD50C01F67
:102E500001218140106808431060002070BDC01F30
:102E600001218140106888431060002070BDC04679
:102E700016280AD801228240E248002902D00168BF
:102E8000114301E0016891430160704716280AD898
:102E9000012282403448002902D00168114301E038
:102EA0000168914301607047F0B584B0FF2859D0A4
:102EB00085088207D30E5F1D2B4E16283FD80C22A3
:102EC0004243D24CA218167FF607274E37D00297FE
:102ED00003951C322518002401956C70147001258F
:102EE0002F4687403268BA4332601E220240022ACF
:102EF00005D1821E2C469440B2682243B260FA4348
:102F00000446113CE4B264087B2C07D3C41FA540DF
:102F100034460C3C2668AE432660134E564C25685A
:102F20001540256002250092019A5570256B3D439E
:102F30002563E56A009A1540E562039D029FFA1A2F
:102F400002249440621E9A40AC003419E56895430F
:102F500099402943E160162804D801218140306856
:102F60000843306004B0F0BD0C380040B0B5A74D48
:102F70002878002801D00720B0BD13200101284681
:102F800001F07CFA0C480024046044600B480460A3
:102F90004460012028700A490A68802313437F2275
:102FA00093430B600004074908600D200649074A57
:102FB00001F06AFA2046B0BD30800040A0F0004029
:102FC00010E400E000E100E0E130021115320211EE
:102FD000801E01228240F548002903D00168114378
:102FE00001607047016891430160704770B5162811
:102FF00001D9052070BDEB4C22185378012B08D164
:1030000001238340002906D1A4691C4003D0062077
:1030100070BD01238340174CE5689D43E5601E2584
:103020000540022D05D1851E0126AE406569354358
:1030300065610925ED430646113EAE4205D3C01F2A
:10304000012585402068A84320600B4804680129B9
:1030500005D0DB431C400460012904D104E01C437B
:103060000460012900D002215170002070BDC046CB
:103070003CEEFF1F0038004004800040B0B5162829
:1030800019D8032242435E4B9D18AB786C78C94A2D
:10309000122803D828788000121800E00C329940DA
:1030A000E01A401C0024E4438440E0439840136845
:1030B00083430B431360B0BD23A8021108F0004006
:1030C000162801D90120704701218140B848426883
:1030D0000A4200D1503000680840411E88417047C4
:1030E000F0B582B000201D21AF4A454BB04DE64FF0
:1030F0000CE02C46E44F2468C440019E34407C54CC
:10310000DB1C921C0C31401C172877D03E187478B9
:10311000012C20D1BC69C440E4071BD0162810D074
:103120001E240440142C0CD054780125A540002402
:103130001457A400344F3C190C3C27682F432760D8
:1031400006E054780125A5402F4F3C682C433C6095
:10315000974DCD4F7478022CD2D10127019787402B
:103160006C683C4201D02C4601E02C465034246867
:103170002E46AD6B3D43B5633C409D786D1EEDB270
:10318000019EAE4012280CD81D78002C0FD0AC0048
:103190001D4D2C190C3C25683543256014280FD390
:1031A00015E0194D002C0DD02C6834430CE0AC0018
:1031B000154D2C190C3C2568B5432560142806D202
:1031C0008C2605E02C68B4432C601428F8D3902694
:1031D0000D4CA45900940E4C255C142800D3203DBE
:1031E000019CAC40009D2C43074DAC51704D6C6868
:1031F0003C4200D07DE72C4650347BE702B0F0BD66
:1032000023A802110080004014F000403CEEFF1F94
:103210000CA80211F0B587B06048016880220A430B
:103220007F218A4302600120069000045C49086007
:103230000620C643D64F1C3700255B4C09E0012110
:1032400004989047A41C0C37761C6D1C102E00D1DE
:10325000A2E0F11D1E200B4605900340CC488019CA
:103260000490027A022B0AD1002A08D0721D069B14
:1032700093404E4802681A4302600498027A012A79
:103280005DD1069A8A40C2488369134257D04848A4
:103290004368134207D003461B681342019408D0C9
:1032A0000368134307E0034650331B68134201943D
:1032B000F6D1036893430360D04302900391CBB2ED
:1032C0003A4908390868029C20400860059818406F
:1032D0000590022806D1701D06998140334C206864
:1032E000084320600920C043113B8342019C06D360
:1032F0000698B0402D4914390B6883430B602C4964
:103300004868104348600698049908720F2E0CD044
:103310000598142809D00020205680002549081857
:103320006900214A5118491C02E022480C30611CF6
:103330000978069A8A4001689143016003993878B8
:10334000012800D07EE70595C8B204900D4600F034
:1033500033F80699A940164A5068084201D0104631
:1033600001E01046503000680840411E02468A4184
:1033700079789142059D00D164E7002803D07A68EE
:10338000002A00D05BE7002800D05BE7BA68002A7B
:1033900000D157E7002153E707B0F0BD10E400E08B
:1033A00000E100E03CEEFF1F90A80211143800403D
:1033B0000080004008F00040F0B583B0162802D924
:1033C000052003B0F0BD0C22424371498C18236ADA
:1033D0001C34002B02D1A268002A51D00293091894
:1033E0000222019100924A7001222270114681400E
:1033F000654BDD688D43DD601E250540022D05D13E
:10340000851E0126AE405D6935435D61CF430925C8
:10341000ED430646113EAE4205D3C01F154685401A
:103420001868A8431860594803683B400360019B33
:10343000009E5E70029B002B07D0A368002B0CD06F
:1034400002680A4203D0021F03E0002205E00246A0
:103450004C3213680B405A425A41436B0B4343634F
:10346000036B3B400363836B002A01D13B4000E0C8
:103470000B438363C26A0A43C262002003B0F0BDFB
:10348000122003B0F0BDC0463CEEFF1FF0B581B086
:1034900004463E4D162835D800923D4B1A19002699
:1034A00056700C276743DB191E7701200346A340A3
:1034B000354FFE689E43FE601E262640022E07D131
:1034C000A61E0746B740304E76693E432E4F7E61BA
:1034D000DE432746113FFFB27F087B2F06D3E71F4D
:1034E000B840294F3F688743274807602868304025
:1034F000286002205070286B18432863E86A304027
:10350000E862009A0C206043214F3E1831627262DB
:103510002046FFF751FF1F491F4A0A60162C31D879
:1035200000282FD01C36391900224A70327001232E
:103530001A46A240144FFE689643FE601E2626409F
:10354000022E07D1A61E1F46B7400F4E76693E4396
:103550000D4F7E61D6432746113FFFB27F087B2F78
:1035600005D3E41FA340084F3C689C433C602B6894
:1035700033402B6002234B70296B11432963E96AA6
:103580003140E96201B0F0BD0038004004800040E5
:103590003CEEFF1FC003FF1F652D0211F0B59DB06B
:1035A000039304921BAA0023059313700126229D06
:1035B000EA062C4601D52C46B443E20707460AD05A
:1035C00030221CAB1A706A060AD483A208923B46CA
:1035D000A20710D509E020221CAB1A706A06F4D5A8
:1035E00086A208923B46A20705D5002B05D46207A8
:1035F0000AD422070BD4049A0FE01BA82D220270D4
:10360000049A521E5F4207E01BA82B2201E01BA870
:1036100020220270049A521E059E20202346069006
:10362000034001934FD008294CD01029384600D1CF
:10363000921E0596029100284AD004920094032617
:10364000029D089F0790294600F09AFE04462846EE
:103650006043079A101A385C0AA98919C91E0870B4
:1036600095423ED82046294600F08AFE0746284665
:103670007843201A0899085C0AA98919891E0870DC
:10368000A54230D83846294600F07AFE089A04460A
:1036900028466043381A105C0AA98919491E087027
:1036A000BD4221D820462946174600F069FE29462A
:1036B0004143611A7A5C0AA98A55361DA542C1D9CF
:1036C000F61E11E0521E3846059602910028B4D12C
:1036D0000AA830210170012603988642374609DD89
:1036E00009E0B61E00E0761E009C049A039886420C
:1036F000374600DC0746D51B112004420FD16D1E52
:103700000DDB0094BD1A09A9069808700024012257
:10371000204600F0A7FE6D1CF5D3E543009C0598FC
:10372000002804D100201BA9012200F09BFE019873
:10373000002814D0029808280AD010280FD109A90F
:10374000302008700020012200F08CFE782000E07C
:10375000302009A908700020012200F083FEE00655
:1037600034D46C1E08DB00241CA90122204600F082
:1037700079FE6D1EF7D1E4430398B04209DD09A933
:10378000302008700020012200F06CFE7F1EBE4237
:10379000F5DB751C0AA84019801E007809A908707D
:1037A0000020012200F05EFE6D1E012DF2DC012CD6
:1037B000069D09DB641C09A90D700020012200F0A0
:1037C00051FE641E012CF6D81DB0F0BD2C460398A6
:1037D000B042D4DCDDE7C0463031323334353637E1
:1037E00038396162636465666768696A6B6C6D6EBF
:1037F0006F707172737475767778797A303132338D
:103800003435363738394142434445464748494ABA
:103810004B4C4D4E4F505152535455565758595A80
:10382000F0B58DB00446052800D180E0022C75D09B
:10383000012C00D080E007A9029100208881099026
:10384000089007900746019006A805900121049171
:103850000170C120800003900BAD2946FCF7D0FB1E
:10386000394E3A48B0816A790F201309024038492D
:103870008A5CF273CA5CB2732A79130902408A5CCB
:103880007274CA5C3274EA78130902408A5CF2747A
:10389000CA5CB274AA78130902408A5C7275CA5C69
:1038A00032756A78130902408A5CF275CA5CB27597
:1038B0002A78B7761040085C70761009085C30767C
:1038C00031460C310E22029D284600F017FD214E94
:1038D00030462830AF1D082539462A4600F00EFD37
:1038E0003046113039462A4600F008FD32461D3276
:1038F000039F381D1C21FCF7FBFE0836152101989B
:103900003246FEF7EDF8781C0499059AFCF7F0FEB4
:103910000D484078294600F01BFD0DE00A4D6878FF
:10392000042100F009FD00202881E88004E0064819
:103930004078002100F0AEFD0348047106A0214646
:10394000FEF70AFE0DB0F0BD18D4FF1F307800005E
:1039500013AE0211DCCCFF1F5B47415020524F4C8D
:10396000452025645D0A000070470000F0B591B065
:10397000444C607900280BD00EA80BA908AA00F0CF
:103980008FFD002809D049A0FEF7E6FD11B0F0BD7B
:103990003DA0FEF7E1FD11B0F0BD07A800F032FD3B
:1039A000002804D04BA0FEF7D7FD11B0F0BD0E9853
:1039B00006900F9B109905910B9A04920C9A0D9FFB
:1039C000089E099DE06123626162049821462831C6
:1039D00085C16663A5630A99079AE1632264184664
:1039E00000F016FD07460491059800F011FD05460C
:1039F0000E46069800F00CFD02460097049801ABB5
:103A000061C33E480B46FEF7A7FD0C9800F000FD91
:103A100006900D460D9800F0FBFC06460F460B98ED
:103A200000F0F6FC0246069800ABE1C334480B46B2
:103A3000FEF792FD099800F0EBFC06900D460A98FF
:103A400000F0E6FC06460F46089800F0E1FC02464E
:103A5000069800ABE1C32B480B46FEF77DFD0798A7
:103A600000F0D6FC024628A00B46FEF775FD207933
:103A7000052804D160780121490300F069FC11B0E8
:103A8000F0BDC04618D4FF1F5B4D5055393235305C
:103A90005D2053656E736F72206E6F7420696E695E
:103AA0007469616C697A65640A0000005B4D505569
:103AB000393235305D204661696C656420746F2051
:103AC000726561642073656E736F722064617461E6
:103AD0000A0000005B4D5055393235305D2046619B
:103AE000696C656420746F20726561642074656D13
:103AF00070657261747572650A0000008AAB02110C
:103B000006AC02117EAA02115B4D50553932353098
:103B10005D2054656D703A20252E3266430A000000
:103B2000F0B593B008AE454C217905297BD1B11C85
:103B30002236E269236A606A0690A06A07903F4DC8
:103B4000E86A01903D4F3C6B0294786B0390BF6B29
:103B500004970A700B71069D0D72079D0D73019DF0
:103B60000D740C7508760F77344FF888059008AF00
:103B700078703846170ECF70170C8F70120A4A7083
:103B80001A0ECA711A0C8A711A0A4A71069B1A0E09
:103B9000CA721A0C8A721A0A4A72079B1A0ECA73E0
:103BA0001A0C8A731A0A254C4A732A0ECA742A0CF4
:103BB0008A742A0A4A74029B1A0ECA751A0C8A75EC
:103BC0001A0A4A75039B1A0ECA761A0C8A761A0AC2
:103BD0004A76049B1A0ECA771A0C8A771A0A4A7711
:103BE0000599090A05460170E16B226C317032714A
:103BF0000B0EF3700B0CB370090A7170110EF1719A
:103C0000110CB171110A7171002001F0DFFEC01EAC
:103C1000C1B205202A4600F0C9F9002805D00146A6
:103C200007A0FEF799FC13B0F0BDE18811A0FEF7E4
:103C300093FCE088401CE08013B0F0BD18D4FF1F57
:103C40005B424C455D204D505539323530206E6F0A
:103C500074696669636174696F6E206661696C6519
:103C6000642C207374617475733A20307825303277
:103C7000580A00005B424C455D204D5055393235A5
:103C800030206E6F74696669636174696F6E20734A
:103C9000656E74207375636365737366756C6C7998
:103CA0002C20636F756E743A2025640A00000000B2
:103CB000F0B5C9B0042800D0BAE004200AAC21460F
:103CC000FEF760FB217883A0FEF746FC2078FC28F5
:103CD00034DC052800D9ABE0784400794000874403
:103CE00002534A41A7940AA88178904DA970407860
:103CF000C109E9707F2101400520484328818A4895
:103D0000401D09AC2146FCF77BF920888108081882
:103D10002080EE78002E00D1A5E02881014689B2EE
:103D2000002900D1A4E084B2A14200D3AAE0C800D7
:103D3000214600F025FBA870C0B2A4E0FD2879D090
:103D4000FE287BD0FF2873D10AA8407886490870E6
:103D50000A2141438748FEF7FFFB744800210170A8
:103D6000AF2078E00AA84178CA007032002000F045
:103D70009DFB49B0F0BD0AA841785B4801805BA07B
:103D8000FEF7EAFB49B0F0BD0AAA5078810006258B
:103D9000062900D829461079D378927809AC218079
:103DA0009200062A00D82A4608AD2A8007AE01965E
:103DB00033806426464306A80290068005A8049036
:103DC00001270397077000964EA0FEF7C5FB564EDD
:103DD0000227304639462246FCF78AFC701C3946D9
:103DE0002A46FCF785FCB01C3946019AFCF780FC9A
:103DF000F01C3946029AFCF77BFC083630460399E2
:103E0000049AFCF775FC49B0F0BD0AA8C278847822
:103E100045780020002A00D103222946134600F0ED
:103E20004BFB0020009029462246234600F04AFB27
:103E300049B0F0BDFEF7FEFA49B0F0BD0AA84078DF
:103E4000494908700A2141434848FEF785FB374835
:103E5000032101704B20C00045490968086000F04B
:103E6000E3F949B0F0BD298989B2002900D05AE7A9
:103E70006878042100F060FA0020E880E8780028E3
:103E800011D11DE0A878002804D10120A870601C81
:103E9000800828816878002E07D0042100F0FAFA03
:103EA000E87800280CD029A00BE0002100F0F2FAFD
:103EB0002A896878042100F039FAE8780028F2D1DC
:103EC0001BA009A90B882A89A978FEF745FB49B0F0
:103ED000F0BDC0465B5752545F4154545D202530BD
:103EE0003278200A00000000F8CAFF1F5B4D5455CD
:103EF0002053495A45204D41585D20253032640AEF
:103F0000000000005B436F6E6E506172615D2025A2
:103F10003034642025303464204C25303264205401
:103F2000253032640A0000001103000018D4FF1F7E
:103F30005B4E6F746966792020205D2070256420B7
:103F40006E69256420636925640A00005B4E6F7406
:103F5000665F436F6E6E5D20702564206E69256418
:103F600020636925640A0000DCCCFF1F31AB02111D
:103F700070CAFF1F49AB021110B50A4A90420BD01C
:103F800001290AD0022907D10121044604F026FCA8
:103F900001462046002900D010BD0349FCF700FE71
:103FA00010BDC046FEFF0000EAF4FF1F70B582B0EE
:103FB00005280AD116460D4600201649FDF71AFDC0
:103FC000C00705D1102002B070BD022002B070BD44
:103FD000114C204631462A4600F090F926780025FB
:103FE000284601F0F3FC0019401F06706678284649
:103FF00001F0ECFC0019001F0670FF200E2100915B
:1040000001900448054B21462A46FCF721FE02B0E8
:1040100070BDC046E8F6FF1FEDF5FF1F90CDFF1FF6
:10402000F0B581B0087AC00605D40698002805D0FE
:104030000B2001B0F0BD082001B0F0BD08780228C7
:1040400025D14868047840780002001980B2194CE4
:104050000019032828D8C0467844007940008744D6
:104060001B0101010024204615461E460F4601F0A3
:10407000ADFCC01E3080FE68204601F0A7FCC21EC9
:104080002846314600F03AF9204601B0F0BD002044
:104090001880012001B0F0BD01201880C8680078A8
:1040A0001070002001B0F0BD002018800A2001B07F
:1040B000F0BDC0460C00FFFFF0B583B00C7AA4063B
:1040C00019D40C78022C19D10290089D4868067802
:1040D00040780002801986B20A204E4FBE4210DCA2
:1040E0004F4CA64218D0BE4200D090E0002D21D007
:1040F0000B2003B0F0BD082003B0F0BD012003B0D9
:10410000F0BD454CA64210D044498E427FD1002DCF
:1041100018D00B2003B0F0BD012000950190DBB258
:104120000298FCF753FD03B0F0BD002D16D00B2014
:1041300003B0F0BD012B0ED11078C96808700020C3
:10414000032159E01546002004461E4601F03EFCBE
:10415000C01EB0422FDA0D2003B0F0BD0F46154649
:10416000002420461E4601F031FC3246C11E0D20BF
:10417000B142034600DB2346914248DB1C46F86807
:10418000294600F0BBF80421152E34D330463246C0
:104190000A3AD3B298422CD9531CDBB2984228D9A0
:1041A000931CDBB2984224D9131DD21CD2B2904288
:1041B0001A46EED81DE0A819411E0978801E007825
:1041C0000002401869782A781202511881420BD1F6
:1041D000144A50688142204602D093685B1C936069
:1041E000491C5160062107E00E48C168491CC160A6
:1041F0000621204600E000200A4A1268002A06D064
:104200001268002A03D0044608469047204603B0AF
:10421000F0BDC046F4FF0000F5FF0000F7FF00000E
:1042200002290000FCD2FF1FF0B58BB0002707ADBC
:1042300038462946FEF7A6F8012606A93046FEF7BD
:10424000A1F8022005A9FEF79DF8032004A9019119
:10425000FEF798F8244C204642301022294600F000
:104260004DF825463935069868760599E976049A19
:104270006A77000AA876080A2877FCF7D5FB03AA14
:1042800017701A4F38463146FCF732FA1848007852
:1042900002AA1070381D3146FCF72AFA2078040172
:1042A0000620214601F0C8FE0720214601F0C4FE89
:1042B00008263046214601F0BFFE0920214601F0C4
:1042C000BBFEB81C1E212A46FCF712FA01980078A2
:1042D0000849087000F0FCF805484078064A314665
:1042E00000F024F80BB0F0BDDCCCFF1F050300008C
:1042F00018D4FF1F480AFF1F8813000003B40148A9
:10430000019001BDE94C010003B40148019001BDD9
:10431000154D010003B40148019001BDF54E0100A7
:1043200003B40148019001BD2526000003B40148F3
:10433000019001BD8B52010003B40148019001BD01
:10434000B352010003B40148019001BDC94A010004
:1043500003B40148019001BD0D52010003B40148AE
:10436000019001BD434D010003B40148019001BD1E
:104370003D4B010003B40148019001BDCD4C01004B
:1043800003B40148019001BD090E000003B40148C7
:10439000019001BDDD52010003B40148019001BD4F
:1043A0001D4D010003B40148019001BD594F0100AA
:1043B00003B40148019001BD1DBC000003B40148D5
:1043C000019001BD6DBC000003B40148019001BD26
:1043D0003555000003B40148019001BD9130FF1F25
:1043E00003B40148019001BD1144FF1F03B401480B
:1043F000019001BDB53AFF1F03B40148019001BD12
:104400001344FF1F03B40148019001BD8940FF1F01
:1044100003B40148019001BD751AFF1F03B40148A0
:10442000019001BDC51D000003B40148019001BD0C
:10443000B161000003B40148019001BD315F00008B
:1044400003B40148019001BDDD5E000003B40148E2
:10445000019001BDD554000003B40148019001BD95
:104460001955000003B40148019001BDED2AFF1F5A
:1044700003B40148019001BD892AFF1F03B401481C
:10448000019001BDB30E000003B40148019001BDCD
:10449000BD24FF1F03B40148019001BD2124000089
:1044A00003B40148019001BD3540FF1F03B401482A
:1044B000019001BDB11F000003B40148019001BD8E
:1044C000D91F000003B40148019001BDAD210000D7
:1044D00003B40148019001BDC5AFFF1F03B40148FB
:1044E000019001BD7511000003B40148019001BDA8
:1044F00075A9000003B40148019001BDC93E000048
:1045000003B40148019001BD9DA9000003B4014816
:10451000019001BD1130000003B40148019001BDBC
:1045200053B9000003B40148019001BDB593FF1FCA
:1045300003B40148019001BD6189000003B4014842
:10454000019001BD1907010003B40148019001BDAC
:10455000A9D8000003B40148019001BDC1A5000025
:1045600003B40148019001BD9D6A000003B40148F5
:10457000019001BD6136010003B40148019001BD05
:10458000C716010003B40148019001BD8F0201006C
:1045900003B40148019001BD116E000003B401484D
:1045A000019001BD8BB9000003B40148019001BD29
:1045B000D1D4000003B40148019001BD057FFF1F65
:1045C00003B40148019001BD8985FF1F03B4014870
:1045D000019001BDADAE000003B40148019001BDE2
:1045E000456B010003B40148019001BD85C1000085
:1045F00003B40148019001BD09B8000003B40148AB
:10460000019001BD2DFC000003B40148019001BDE3
:1046100025E7000003B40148019001BDEDB800009A
:1046200003B40148019001BD3148000003B40148C2
:10463000019001BDC53F000003B40148019001BDD8
:10464000F5D5000003B40148019001BDF1FA000066
:1046500003B40148019001BD9589FF1F03B40148CF
:10466000019001BD9946000003B40148019001BDCD
:104670001547000003B40148019001BDC5F00000DA
:1046800003B40148019001BD79F4000003B401486E
:10469000019001BD63EC000003B40148019001BD2D
:1046A00005FF000003B40148019001BD3161000025
:1046B00003B40148019001BD0589FF1F03B40148FF
:1046C000019001BD59E4000003B40148019001BD0F
:1046D000D5E4000003B40148019001BD01BF000012
:1046E00003B40148019001BD21F1000003B4014869
:1046F000019001BD39B8000003B40148019001BD2B
:1047000077F1000003B40148019001BDC1E200004F
:1047100003B40148019001BD8DE3000003B40148DA
:10472000019001BD5511010003B40148019001BD84
:10473000A5FD000003B40148019001BD691F000000
:1047400003B40148019001BD5D17000003B40148A6
:10475000019001BD5952010003B40148019001BD0F
:104760005125000003B40148019001BD014C010036
:1047700003B40148019001BD1D4B010003B4014881
:10478000019001BD8D12000003B40148019001BDEC
:104790004D1F000003B40148019001BD55220000E7
:1047A00003B40148019001BD017F000003B401483A
:1047B000019001BDE117000003B40148019001BD63
:1047C0007918000003B40148019001BDD9490100E6
:1047D00003B40148019001BDE928000003B4014879
:1047E000019001BD5549010003B40148019001BD8C
:1047F0004551010003B40148019001BDC9260000E4
:1048000003B40148019001BD157AFF1F03B40148AC
:10481000019001BDF94C010003B40148019001BDB4
:10482000291C000003B40148019001BD851F000050
:1048300003B40148019001BDA946010003B4014839
:10484000019001BD1147010003B40148019001BD71
:104850006374FF1F03B40148019001BD3D74FF1F45
:1048600003B40148019001BD090E000003B40148E2
:10487000019001BDE548000003B40148019001BD6D
:104880002951010003B40148019001BDD91B00006A
:1048900003B40148019001BD5147010038B50446F9
:1048A00000F044F80146684601704470210A8170A6
:1048B0006A4603210248FFF711FE002038BD0000C0
:1048C0001B20000038B5044600F056F80146684643
:1048D00001704470210A81706A4603210248FFF783
:1048E000FDFD002038BD00001A20000008B500289A
:1048F00002D000F073FA00E01220694608706A46A0
:1049000001210248FFF7EAFD002008BD0520000054
:1049100070B50C460546FFF7E7FD21462846FFF730
:10492000E9FD0446FFF7ECFD204670BD10B5114AC5
:10493000A1218900126841438C189D2189000959E1
:10494000012901D00C2010BDFFF7E0FD0028FAD1AD
:10495000E01DF93002790621012A06D041710D21AE
:104960002046FFF7D9FD002010BDFF202130015562
:104970000221F5E73409FF1F70B50D46134AA12146
:104980008900126841438C189D2189000959012929
:1049900001D00C2070BD002D16D0FFF7B7FD002808
:1049A000F8D110210B1A2A5C1B19E033401CC0B24D
:1049B0009A711028F6D30121F820015505212046CF
:1049C000FFF7AAFD002070BD122070BD3409FF1F43
:1049D000FEB5089D099C1746002874D0002972D0A6
:1049E000002C02D0012C02D003E02A2201E0FF2299
:1049F0000732921D0192354A0E461770344A1060F4
:104A0000344803703448057034480470002445E08D
:104A1000A1208000254645432D48A121006889003A
:104A20002818FFF72BFD2A482D4900686200281836
:104A3000FF308130C6620198361800208854511822
:104A400048702649097800293BD0FF211131009197
:104A500021461C204143234800220D182A76425447
:104A6000E0B20099FFF75EFD686000202872E0B2B6
:104A700001220099FFF756FDE86000202874E0B29B
:104A800002220099FFF74EFD6861696800291AD07B
:104A9000E968002917D0002815D0641CBC42B7DB98
:104AA00000200F4A104D0146203283009C1865807B
:104AB000401CD154C0B261701028F6D30020FEBD56
:104AC00001E03421C3E71220F9E700001409FF1FB9
:104AD0003409FF1F1509FF1F1609FF1F1709FF1FC4
:104AE00098D0FF1F98CEFF1FFFFF0000F8B5724D52
:104AF0000028AA7916D0012A01D0032A12D16F49C1
:104B00000B78FF2B0ED14B78FF2B0BD18B78FF2B23
:104B100008D1CB78FF2B05D10B79FF2B02D1497936
:104B2000FF2930D066490B78012B1DD00026654C3B
:104B30000E702178092931D00A292FD00B292DD0C8
:104B40000C292BD00D2929D0052927D0062925D0BD
:104B5000A97B00290AD0012908D0032906D00229FF
:104B600004D004290FD101E00C20F8BD002A05D0A3
:104B7000012A03D0022A01D0032A04D1524F00286F
:104B800077D0012801D01220F8BDA888012805D0CF
:104B9000FFF7AAFC2078002802D01AE02120F8BDF7
:104BA000A87B0300FFF7C4FC050408100C082400D0
:104BB000012020701F200AE002202070202006E043
:104BC00004202070222002E0032020702120FFF723
:104BD000B5FC2078282101280DD002280BD004280C
:104BE00009D0032807D0072810D008280ED01DE0D0
:104BF00026701E20EBE73548066029750120A88045
:104C0000FFF7A2FC002822D0AE800FE03048806978
:104C1000808D80060AD52F480278002A06D1AA7B0B
:104C2000032A06D0022A04D0002A02D0FFF768FC2B
:104C3000B4E70122AA8002220270297514032146DA
:104C40003878FFF779FB21463878FFF781FB224857
:104C50000078002809D02148012102887D20C00069
:104C60004243C9033878FFF761FBFFF749FC20E0B6
:104C7000FFE7FFF739FCAE802078072808D0082826
:104C800006D026701648FFF765FC1E20FFF756FC7D
:104C900010480178002900D00670012149033878B6
:104CA000FFF74AFBFFF72CFC0121C9033878FFF717
:104CB00043FB0020F8BD0000A60BFF1F6B09FF1F80
:104CC0001A09FF1F1C09FF1F1B09FF1F4809FF1FAF
:104CD00058CAFF1F2309FF1F2109FF1F2C09FF1FAF
:104CE00000100040FFB585B017460D4604460E9EE5
:104CF000FFF7FAFB29482946007804902046202C2B
:104D000000D22020202900D220210FAA2CCA0395EE
:104D10000293019200963A46089BFFF721FC00900F
:104D20001F481E49448004980870012F01D0042FA9
:104D300025D11C4D1C4C287821798027C001B9430E
:104D400008430321C0B289024018A080324603A85C
:104D50000F99FFF70BFC26460C3601280AD1039861
:104D6000FFF70AFC002805D101A90398FFF70AFC08
:104D7000002809D00622691C3046FFF7BFFAFFF76A
:104D8000BFFB009809B0F0BD062201A93046FFF72D
:104D9000B5FAA0883843A080F1E700001C09FF1F86
:104DA000A60BFF1F7809FF1F6C11FF1F10B5FB2911
:104DB00008D8084B9A4205D81B2903D3FF2349334F
:104DC0009A4201D2302010BD034B19825A82FFF75C
:104DD000DFFB10BD480800008410FF1FF8B5324902
:104DE000097801292AD0022928D0032926D00429AC
:104DF00024D0052922D0062920D02C49097802295F
:104E00001CD004291AD0012918D0032916D006294C
:104E100014D0072912D00178254C8C462170467891
:104E200066708378A370C278E2700179217140794D
:104E3000204D6071AF79012F02D008E00C20F8BD41
:104E40006746EF712E726B72AA72E972287306229E
:104E5000E91D1948FFF752FA0622E91D1748FFF726
:104E60004DFA1748017801290BD1217841706178FA
:104E70008170A178C170E178017121794171617906
:104E800081711048017801290BD121784170617836
:104E90008170A178C170E1780171217941716179E6
:104EA00081710020F8BD00001C09FF1F2309FF1FAE
:104EB0006B09FF1FA60BFF1F7211FF1F8A13FF1F35
:104EC000BC0BFF1FD40BFF1FFFB50D46A1218900AE
:104ED0004843234981B009681E464418002D09D073
:104EE000FF20D930015B0398814203D3002E04D008
:104EF000012E02D0122005B0F0BDE07800280AD0C3
:104F00000520C00127181748F9780078801C8142D5
:104F100003D30720EFE70220EDE7FFF7E5FAF87883
:104F2000A91E401CF87003980870002E10D00120B4
:104F3000487020467C30091FFFF730FBFFF7E0FA8E
:104F400009480078082805D0072803D00020D2E7B8
:104F50000220EDE700212046FFF726FBF6E70000E0
:104F60003409FF1F1509FF1F1C09FF1FF8B5FFF7C4
:104F700021FB834D834AA8751178022903D90028A3
:104F800001D101201070804900200446A9618300EE
:104F9000401CCC50FF28FADDA8697C4988231950B1
:104FA0007B49C1627B490978002902D078491131D7
:104FB000C1620A210165117881637749C161FFF7F8
:104FC000FFFAA9697548486119208001886108467F
:104FD00037228030C260082336220B64CA631E2247
:104FE0004A6436224260322202603B220364C2637A
:104FF000282242644122C2643922826432224365FB
:10500000026528228265022202664222C2651E22B1
:10501000836642660A22C2662022426742220267F3
:105020005A22436102613C228261192292010A6084
:105030005B4A0A63FF222D328A60CA60FF22F53282
:105040000A61584A8A647D22D200574EC267CE64F4
:105050004A62564A8A623222CA6506224A658A65CF
:10506000CA1DF932022513604D664B25ED008D6691
:105070000925CD664E4D0D678C674B67AB10CB672E
:105080004C4FFF313E60474E86627D26F6008667B4
:10509000642646620526C66202260663C826466363
:1050A000846338205060444810644B208001906134
:1050B000B000D061581010627D2000015062D466AB
:1050C000956513665364D565146753671E20906613
:1050D0003A4890673A485B008131D0670B608B603B
:1050E0004860FA20C860400008614B20C00010638F
:1050F00028200E6548660620886633483149224AD2
:1051000081603249803A11612F49314A80318A6287
:10511000304ACA62304981613049C1623049016315
:10512000294930484031886130492F4888602649F4
:105130002F48803948602F48486323492E48C0399A
:10514000C8602F482D4AC2631F4A2E4B403A136352
:105150002D4B8B621C4B2D49803BD9632C49D96068
:105160002C4941632C49D1602C4981632C4901634E
:105170002C489863FFF72AFA0120FFF72DFAF8BDB3
:1051800058CAFF1F4A0AFF1F0004FF1FF0FBFF1F42
:105190006E040000E8D1FF1F3A07000080C3C90178
:1051A0009A02000050C30000280A00006A1800009C
:1051B000204E0000F009FF1F00400011DC05000038
:1051C00040420F00618FFF1F0001FF1F2D78FF1F5E
:1051D0005D9DFF1F39A0FF1F3975FF1FCD76FF1F93
:1051E0005575FF1FBD74FF1FAD4D02110002FF1F5B
:1051F0009D87FF1FE58CFF1F797BFF1F114902115F
:105200000000FF1F6D9BFF1FFD89FF1FD992FF1F2D
:10521000358AFF1F617BFF1FF187FF1FC94E0211F7
:10522000417AFF1FFD99FF1F70B50446FF30FF3024
:105230000230406F0D46012812D1282D10D1A42034
:10524000005BE188401A1D4980B2884208D321469C
:105250006A3105220E46481FFFF78CF8002818D047
:1052600017490020820052185278002A16D0401C9C
:10527000C0B21028F6D31348012189020078FFF745
:1052800067F82079010110480918897902290DD0A1
:105290000FE031462046FFF7A5F970BD8000237965
:1052A000421853800D5401205070E4E74178491EA4
:1052B00041702046FFF79CF970BD0000FF7F0000A1
:1052C000B8D0FF1F1B09FF1F300DFF1FF0B50546AB
:1052D00087B0E03004902846A03003904038059015
:1052E000092080012E462818FF36E136029030460C
:1052F0002030EF1DF9372C4680340190AAE1E07A86
:10530000801E0300FFF714F91A0E3822396BF538A6
:10531000BF3892CFA93838383838FFF3F2F1F03877
:1053200038EFEE38A07A012803D02846FFF766F957
:1053300012E0CB488078002801D016213BE1608A3A
:10534000401E0004000C60826FD081E1A07A012829
:1053500004D02846FFF758F9A07279E1C048C07818
:105360000028ECD02846FFF755F92A462946287927
:10537000C832C031FFF754F96CE1A07A012813D08C
:105380000498C07D012821D00498007E002879D09F
:105390002A4629462846D732B031E730FFF746F98A
:1053A00004990120C87555E1AD48C078002805D0A2
:1053B0000399012088710020E0673860B8790128DE
:1053C000BDD106212846FFF737F943E12846FFF70C
:1053D00039F90128B9D10020B8710120BCE7A07AC1
:1053E000012803D02846FFF733F9B5E79C48C07879
:1053F0000028A4D0E88C68842846FFF70BF90599AB
:105400000120C876207138790128287909D0012235
:105410000021FFF723F9002038713872F871B87154
:1054200018E10021FFF720F9F5E7C3E0A07A012891
:1054300005D02846FFF71EF9012807D008E1F879C2
:105440000128BDD12846FFF7E5F803E10020F871F7
:10545000039988710120A072FCE0A07A012804D091
:1054600079792846FFF70CF976E77D48C17800295D
:1054700006D0039A00219171059A0121D1762171FC
:10548000807849E09BE0A07A012803D02846FFF706
:10549000FDF861E77248C0780028AAD0012038736F
:1054A000E88C6884CEE7A07A012805D00120F87541
:1054B0002846FFF7F1F84FE7787D012806D0608A8B
:1054C000401E0004000C608214D0C1E0B87D0128A9
:1054D000B8D1B88B00907B8B3A7E29790020FFF7FA
:1054E000E1F8AFE79CE07FE048E03AE028E016E032
:1054F00009E0A8E0B88B00907B8B3A7E29792220C6
:10550000FFF7D0F856E0A07A012803D02846FFF72D
:10551000CFF821E75248C078002893D10FE7A07A4E
:10552000012806D02846FFF7C9F8A0720020707441
:105530008EE04B48C0780028F0D00120707481E7DD
:10554000A07A012803D02846FFF7BEF804E74448B4
:10555000C0780028E2D0002030742879FFF7BAF82C
:1055600070E7A07A012803D02846FFF7B9F836E0A3
:105570003B48C0780028D1D0012018E0A07A01284B
:1055800007D0707FB17F08401BD041071DD5042094
:1055900020E03348C0780028C0D001990020C871AD
:1055A000019A012111722F490979012999D1019993
:1055B000087247E722212846FFF798F8012007B034
:1055C000F0BD707E7075B07E05E0800701D50220C9
:1055D00000E001207075B0752846FFF78DF8A072C5
:1055E00001990020087233E0A07A012807D02846EC
:1055F000FFF788F8A07202990120087628E0184881
:10560000C07800289BD1608A401E0004000C608294
:105610001ED11548042200212818FEF775FEC9E79F
:10562000A07A012803D02846FFF772F894E60C48C8
:10563000C07800280ED00299002008760299C8751B
:10564000FFF76CF8FEE62846FFF76EF8012887D0D2
:105650000020B4E7E07B002800D050E6AFE7000070
:10566000E010FF1F58CAFF1F5602000012481149E0
:105670000160124981601049114A40314A61124B60
:10568000104A5A61114AC262114A8263114A8A6001
:10569000114A42630C4A1148403A1062104888612E
:1056A0001048094AC86110484032D0610F4808626A
:1056B00070470000E54C02114000FF1FED4A021147
:1056C000ED9AFF1F399AFF1F4002FF1FD188FF1F6D
:1056D0001D87FF1F29520211CD520211518BFF1F4E
:1056E000C17BFF1FB188FF1F2195FF1FD589FF1FB9
:1056F000094802681146323100206529114604D25A
:10570000521C05D00548017070470146521CF9D162
:10571000014602480170704708400011680AFF1FE7
:1057200005480068202800D3092004490A681F237F
:105730009A4302430A6070470C400011BCF00040DD
:105740000A7802708A7842704A88120A827009794F
:10575000C170042070470A7802700988090A4170F4
:105760000220704710B500220EE093005B189C7871
:1057700004705C88521C240A44701C7984709B88D5
:10578000D2B21B0AC370001D0B789342EDD81806E5
:10579000800D10BDF8B50D460646497801203170E0
:1057A0000024761C16E06978012917D01221614384
:1057B00049198A7832704A88871C120A7270B61C9E
:1057C00010223046091DFEF799FD1037B8B2103689
:1057D000641CE4B22978A142E5D8F8BDA1004919BA
:1057E0008A7832704A88871C120A7270B61C0222AC
:1057F0003046091DFEF782FDBF1CB8B2B61CE7E7B4
:1058000010B50C46097801702188090A4170628838
:10581000211D801CFEF772FD6088801C80B210BDC7
:1058200010B50C46097801702188090A4170A178E9
:1058300081706188090AC170A288A11D001DFEF750
:105840005DFDA088001D80B210BD10B50C460A8811
:10585000891CFEF753FD208810BD10B50B788A789F
:1058600002705343DCB22246401C091DFEF746FD80
:10587000601C10BD10B50B788A7802705343DCB2FF
:105880002246401C091DFEF739FD601C10BD10B5F5
:105890000C460A88891CFEF731FD208810BD10B522
:1058A0000C460A88891CFEF729FD208810BD7FB5AB
:1058B00015460446022901D0102903D1022B04D039
:1058C000102B02D0002004B070BD994202D10A46CC
:1058D000294607E01029694607D000F00DF810228C
:1058E00069462846FEF746FDEDE7104600F004F84D
:1058F000102269462046F5E770B50C4605000CD02D
:10590000002C0AD0102206492046FEF7F7FC287822
:10591000207368786073012070BD002070BD0000A6
:105920002EA7021110B50B460122024901F09AF888
:1059300010BD00004157021170B5064608880C469C
:10594000172812D30B4603220949304601F08AF882
:10595000050008D1074920880988884200D20146FD
:10596000304600F0CFF9284670BD022070BD00001F
:105970005757021104CBFF1F10B5002319221946F7
:1059800001F070F810BD000010B50A78002A05D0AB
:105990000B460722024901F065F810BD022010BD38
:1059A0006557021110B54A78012A01D0022A08D1A0
:1059B0000A78002A05D00B460522034901F052F867
:1059C00010BD022010BD0000955702110249400091
:1059D0008968085A70470000F8CAFF1F10B50B46C7
:1059E0001D22024901F03EF810BD000001580211CD
:1059F00010B50B461B22024901F034F810BD00001F
:105A00000158021110B50649002089681723054A7C
:105A100002E044000B53401C1478A042F9DB10BD97
:105A2000F8CAFF1FC4CBFF1F0098022B01D004202F
:105A3000704711785278120289180180002070474F
:105A40000098012B01D004207047117801700020CC
:105A5000704770B5049C1E461546062B1BD369780B
:105A60002878090240182080E978A87809024018AF
:105A7000608002222271291D601DFEF73FFCB61FC7
:105A8000B2B22281F02A06D82046A91D0A30FEF7BC
:105A900035FC002070BD042070BD0098042B01D09F
:105AA00004207047537811781B02C918018091783F
:105AB000D27812028918418000207047F8B5848995
:105AC0000D460646002C26D0B2681778380620D539
:105AD0000C2C20D90C3CA4B2101900900121708824
